:100000000C9463000C9462090C948F090C948B007F
:100010000C948B000C948B000C948B000C948B0034
:100020000C948B000C948B000C948B000C948B0024
:100030000C948B000C948B000C948B000C948B0014
:100040000C94A20A0C948B000C94720D0C94AE0DBF
:100050000C948B000C948B000C948B000C948B00F4
:100060000C948B000C948B00000000070002010030
:100070000003040600000000000000000102040864
:100080001020408001020408102001020408102002
:10009000040404040404040402020202020203032E
:1000A00003030303000000002300260029000000D2
:1000B0000000250028002B0000000000240027007D
:1000C0002A00AE02690E11241FBECFEFD8E0DEBFBA
:1000D000CDBF12E0A0E0B1E0E2E0F6E202C00590A0
:1000E0000D92A231B107D9F713E0A2E1B2E001C04D
:1000F0001D92A438B107E1F710E0C6ECD0E004C0CF
:100100002297FE010E940410C23CD107C9F70E9449
:10011000C90C0C94FF120C940000CF92DF92EF9266
:10012000FF920E94EC0A6B017C0107C061E084E24F
:1001300092E00E94E00881110DC00E94EC0A6C1947
:100140007D098E099F09653671058105910570F35A
:1001500080E001C081E0FF90EF90DF90CF900895A4
:10016000CF92EF920F9340E855E260E070E08DEDA2
:1001700092E00E94E90D61E083E00E94E60962E0FE
:1001800071E08DED92E00E94C10B85E0C82E98E0F1
:10019000E92E00E024ED41E062E084E292E00E947A
:1001A000FB0640E167E171E084E292E00E941309FE
:1001B00068E271E08DED92E00E94E00B8DED92E03F
:1001C0000F91EF90CF900C94CA0BCF92DF92EF92E9
:1001D0000F931F93CF93DF931F92CDB7DEB7182FE6
:1001E000D62E49830E94EC0A4981242F332727FD0C
:1001F00030953F934F932D2D332727FD30953F9317
:10020000DF92212F332727FD30953F931F9383E4FF
:1002100091E09F938F938CE192E09F938F930E9444
:1002200011106CE172E08DED92E00E94E00B0FB6D0
:10023000F894DEBF0FBECDBF4CE1C42E42E0D42EF9
:10024000F60101900020E9F79F01215031092C515E
:1002500032403CE0E32E01E04CE152E061E084E218
:1002600092E00E9475086AE471E08DED92E00E94D0
:10027000C10B4AE050E061E070E08DED92E00E9439
:10028000AF0C0E948D00882371F062E671E08DED65
:1002900092E00F90DF91CF911F910F91EF90DF903F
:1002A000CF900C94E00B69E671E08DED92E00E9436
:1002B000E00BC6CFEF92FF920F931F93CF93DF9384
:1002C00084E292E00E949B07882309F499C0809100
:1002D000B0029091B102892B09F082C084E292E0D1
:1002E0000E94CF08F82E6BE58DED92E00E94C30BC3
:1002F0006F2D8DED92E00E94C30B66E771E08DEDEE
:1003000092E00E94C10B69E771E08DED92E00E94DE
:10031000C10B10E018C0C12FD0E0A0912602B0910F
:100320002702AC0FBD1F6C918DED92E00E94C30BB4
:10033000A0912602B0912702AC0FBD1F8C91C95E1F
:10034000DD4F88831F5FA0912802B09129028C9114
:10035000181708F381E0F81216C0E12FF0E0E95E0B
:10036000FD4F108284E292E00E94D3088823F1F1CD
:1003700020E040E062E471E084E292E00E94A6089E
:1003800064E871E02FC0E7E1F2E0DF010D900020AA
:10039000E9F79D01215031092E1B3F0B5CE0E52E52
:1003A00001E0AF016F2D84E292E00E9475086AE4DB
:1003B00071E08DED92E00E94C10B6F2D8DED92E00A
:1003C0000E94F40B0E948D00882319F062E671E010
:1003D00002C069E671E08DED92E00E94E00B06C07C
:1003E00060E971E08DED92E00E94C10B8DED92E02D
:1003F000DF91CF911F910F91FF90EF900C94CA0B5A
:10040000DF91CF911F910F91FF90EF900895809110
:100410002302882331F060910001605383E00E9441
:100420001E0A0E945A0180911702873759F44091A1
:1004300019024093000161E070E08FEC92E00E94AD
:100440002E093DC08235B1F480911902803331F418
:1004500081E08093230268E971E004C0813339F4BC
:1004600069EB71E08DED92E00E94E00B28C01092E4
:10047000230225C0823731F5809112020E94810A41
:100480009093150280931402BC01882777FD809514
:10049000982F0E94540F23EC35EF44E151E40E9461
:1004A000B90E0E94210F609316028DED92E00E941A
:1004B000F40B43E26091160284E50E94E50080E2BD
:1004C000809317020895CF9383E00E947E0A81E013
:1004D0008093230266ED71E08DED92E00E94E00BC7
:1004E00043E261E082E50E94E5000E945A018091AA
:1004F0002302811105C060E083E0CF910C941E0AB5
:1005000061E070E08FEC92E00E942B09C82FE0912F
:10051000DD02F091DE020280F381E02D41E150E046
:1005200065EE71E08DED92E009956C2F8DED92E016
:100530000E943B0DC0930001CF9108950E94B0002E
:1005400060ED77E080E090E00E94280B0E9463025B
:1005500067EF71E08DED92E00C94E00B8EE292E09B
:1005600090932702809326028DE292E090932902D5
:100570008093280208959C012627622F62956227A6
:10058000062E669566956025062E66956025677031
:10059000022E232F669507946795302D2627069403
:1005A000679530252627C90108952F923F924F92D3
:1005B0005F926F927F928F929F92AF92BF92CF92F3
:1005C000DF92EF92FF920F931F93CF93DF93CDB7FC
:1005D000DEB72A970FB6F894DEBF0FBECDBF8823D3
:1005E00009F458C1E0912D028091C4029091C50296
:1005F000A091C602B091C7020196A11DB11D8093C2
:10060000C4029093C502A093C602B093C702F0E063
:10061000E25DFD4F80839183A283B38380912D029D
:100620008095837090912D02980F90932D02E09108
:100630002D02F0E0E25DFD4F90819F739083E09189
:100640002D02F0E0E25DFD4F208100E4809FC001BB
:100650001124282B208380912D028F5F80932D02FF
:1006600020912D022695269522300CF462C2332764
:1006700027FD3095215031091901220C331C220C21
:10068000331C8EE292E0280E391EF10180819181A7
:10069000A281B38140E050E0BA0138872F834754EC
:1006A0005648684C71468A019B01F2E036952795C1
:1006B00017950795FA95D1F703701127222733274D
:1006C0000B831C832D833E83198267C0F901EE0FD3
:1006D000FF1FEE0FFF1FEE5CFD4F408051806280D8
:1006E0007380F901EE0FFF1FEE0FFF1FE25DFD4F5C
:1006F000FA87E98793018201E3E0369527951795FC
:100700000795EA95D1F7082519252A253B25530198
:100710004201F2E0880C991CAA1CBB1CFA95D1F787
:100720008C249D24AE24BF24080D191D2A1D3B1DB9
:10073000E3E0FE2EF981FF22EB81FE26FF2DE4E0AF
:10074000FE0270011124E4EBF2E0EE0EFF1EF70151
:10075000C080D180E280F3808C259D25AE25BF2509
:100760004426552666267726840D951DA61DB71DA1
:1007700080279127A227B327E985FA850081118177
:1007800022813381800F911FA21FB31F8083918329
:10079000A283B383F981FF5FF9834980242D30E080
:1007A0004C015D01F4E0880C991CAA1CBB1CFA9555
:1007B000D1F76C017D0115E0F694E794D794C794C6
:1007C0001A95D1F70F811885201731070CF47ECFC9
:1007D00000912E0210912F022091300230913102AF
:1007E000F3E07F2E7420EB817E26F72DE4E0FE02FD
:1007F00030011124E4EB4E2EE2E05E2E640C751CF9
:10080000F301408051806280738084259525A62560
:10081000B7252A013B014026512662267326840D06
:10082000951DA61DB71D28013901F3E07694679444
:1008300057944794FA95D1F7482459246A247B2485
:10084000E2E0000F111F221F331FEA95D1F70C259C
:100850001D252E253F25400E511E621E731E842528
:100860009525A625B725F1010081118122813381CB
:10087000800F911FA21FB31F80839183A283B38334
:100880004635FAED5F07FCE46F07F5EB7F0709F0EB
:1008900006CF4FC18091B0029091B102892B09F02F
:1008A00048C140912D024695469542300CF424C132
:1008B00000912E0210912F022091300230913102CE
:1008C00054E0459F10011124C101865D9D4F9A831C
:1008D000898386E59AEDACE4B5EB41504F83AC01DA
:1008E000BD01E2E07695679557954795EA95D1F772
:1008F00043705527662777277F8065C0472C512C8A
:100900009201220F331F220F331F265D3D4FF90145
:1009100000811181228133811201220C331C220CAF
:10092000331CF101E25DFD4FFA87E98718012901C7
:1009300064E0220C331C441C551C6A95D1F7282412
:1009400039244A245B244801590175E0B694A794E0
:10095000979487947A95D1F78C249D24AE24BF2454
:10096000280C391C4A1C5B1CF72DF370F427E4E0BB
:10097000FE0270011124E4EBF2E0EE0EFF1EF7011F
:10098000C080D180E280F380C026D126E226F32603
:100990000B811C812D813E81C00ED11EE21EF31EF3
:1009A0002C243D244E245F24E985FA8500811181A1
:1009B0002281338102191309240935090083118327
:1009C000228333837A944801590163E0B694A79453
:1009D000979487946A95D1F76801790172E0CC0CFD
:1009E000DD1CEE1CFF1C7A95D1F718012901282681
:1009F00039264A265B262B823C824D825E8271100C
:100A00007DCFE981FA810081118122813381280122
:100A1000390164E0440C551C661C771C6A95D1F7BB
:100A2000482459246A247B244801590175E0B6946E
:100A3000A794979487947A95D1F78C249D24AE241B
:100A4000BF24480C591C6A1C7B1CFA01EE0FFF1FC7
:100A5000EE0FFF1FEC54FD4F408151816281738185
:100A600040275127622773270B811C812D813E81EE
:100A7000400F511F621F731F442655266626772696
:100A800000912E0210912F022091300230913102FC
:100A9000041915092609370900932E0210932F0215
:100AA0002093300230933102895B9947A743BE49B6
:100AB00009F015CFE0912D02E150E0932D02F0E016
:100AC000E25DFD4F40814295469546954370E09129
:100AD0002D02F0E0E25DFD4F80818F7390E0A0E099
:100AE000B0E08093C8029093C902A093CA02B09369
:100AF000CB0220E030E013C04423D9F0DBCFBA2F83
:100B0000A92F982F8827E0912D02E150E0932D0224
:100B1000F0E0E25DFD4F5081852B2F5F3F4F421388
:100B2000EECF8093C8029093C902A093CA02B093FB
:100B3000CB022A960FB6F894DEBF0FBECDBFDF9171
:100B4000CF911F910F91FF90EF90DF90CF90BF90CA
:100B5000AF909F908F907F906F905F904F903F905D
:100B60002F90089525B181E090E0A0E0B0E00090E2
:100B7000CE0204C0880F991FAA1FBB1F0A94D2F788
:100B8000282B25B924B1282B24B961E08AE00E94E2
:100B90001E0A61E08AE00E94E60961E08BE00E94A3
:100BA000E60960E08CE00E94E60961E08DE00E94C9
:100BB000E60980E58CBD8DB581608DBD60E082E089
:100BC0000E94E60961E082E00C941E0A8EBD0DB41D
:100BD00007FEFDCF8EB50895CF92DF92EF92FF9280
:100BE0001F93CF93DF93182F2CB521602CBD85B1B7
:100BF000C12CD12C7601C394B701A6010090CE027E
:100C000004C0440F551F661F771F0A94D2F7409502
:100C1000482345B9892F0E94E605D82F80E0C82FC8
:100C2000812F0E94E60595B10090CE0204C0CC0C45
:100C3000DD1CEE1CFF1C0A94D2F79C2995B99CB5CB
:100C40009E7F9CBDC82BCE01DF91CF911F91FF905D
:100C5000EF90DF90CF900895CF92DF92EF92FF92C6
:100C6000CF93C82F85B1C12CD12C7601C394B70185
:100C7000A6010090CE0204C0440F551F661F771FC7
:100C80000A94D2F74095482345B9892F0E94E6057A
:100C90008C2F0E94E60585B10090CE0204C0CC0CDA
:100CA000DD1CEE1CFF1C0A94D2F78C2985B9CF916C
:100CB000FF90EF90DF90CF900895CF9380E090E089
:100CC0000E942C068091B202853091F580E090EB75
:100CD0000E94EC05682F8091B302811104C020911D
:100CE000CC02211176C08091B302E82FF0E0E65DDE
:100CF000FD4F60838F5F8093B3028091B00290912B
:100D0000B1020E94BB029093B1028093B002809125
:100D10002D022091B30290E0059630E082179307F0
:100D20000CF462C08091B302863808F05DC061C0E7
:100D30008091B20287FF1AC0E0912D028091B20229
:100D4000982F9F5F9093B202EC5FE80FF0E0E65DB2
:100D5000FD4FC0818091B0029091B1026C2F0E9432
:100D6000BB029093B1028093B0022FC08091B20277
:100D7000982F9F5F9093B202833011F12CF4882357
:100D800099F0813009F516C0893019F08A30E1F404
:100D900002C0CDE21AC0C091CC0290912D028DEF1D
:100DA000891B8093B20211C08091B0029091B10270
:100DB000C82F0BC08091B0029091B102C92F05C01D
:100DC0008DE092E80E942C06CAEA8C2F90E098549D
:100DD0000DC09091B302E92FF0E0E65DFD4F208356
:100DE0009F5F9093B3027FCF8DE092E8CF910C94F8
:100DF0002C06CF910895EF920F93CF93C42F32E03A
:100E00003093CE026093CD022093CC020E94B205B3
:100E100080E090E00E942C0685E092E80E942C067B
:100E200080E098EB02C080E090E00E942C0682E017
:100E30000E94550A892BB9F320E1C29FC0011124F9
:100E4000876C90680E942C0680E496EA0E942C062B
:100E50008E2D90E09A530E942C0682EA94E90E941B
:100E60002C068CEA92EC0E942C068091CC028823FE
:100E700049F083E89AEC0E942C068091CC0290E025
:100E80009E6C06C08BE89AEC0E942C068DE29EECCC
:100E90000E942C0683E894EC0E942C06083028F46B
:100EA000802F90E08065986902C087E598E90E94EC
:100EB0002C0687E79CEC0E942C0680E090EE0E94B6
:100EC0002C0680E098EC0E942C0683E490EC0E94B3
:100ED0002C0684E08093B2028091CD02882351F0E9
:100EE00040E050E06DE576E080E0CF910F91EF902B
:100EF0000C94320980E0CF910F91EF900C9452093D
:100F000010922D021092B3028FEF9FEF9093B102D7
:100F10008093B0026091CC02662331F00E94BB0244
:100F20009093B1028093B00285E08093B2028DED80
:100F300092E80C942C062091B202253041F52091C4
:100F40002D024091B30230E02B5F3F4F50E0241759
:100F500035072CF12091B302263808F518C021E09E
:100F600030E03093B1022093B00220912B022F7712
:100F7000F1F020912B022F773091CD02231307C07F
:100F800016C0DC01ED91FC913097C1F41AC020919C
:100F9000B202243011F40E94800780E0089524E01A
:100FA0002093B20220912D022138C8F6DECF209185
:100FB000B0023091B102232B21F303C080E00995E8
:100FC0000BC08FEF9FEFDC018093C8029093C902A2
:100FD000A093CA02B093CB0281E008958091B2023F
:100FE000853089F48091B30281110DC00E94E6051D
:100FF00080FD09C08DE092E80E942C0684E0809379
:10100000B20281E0089580E00895222311F020E8E3
:1010100001C020E0262B20932B023091CD024423E7
:1010200011F020E801C020E0232B20932C02DC01EA
:10103000ED91FC91309711F081E009958FEF9FEFD2
:101040009093B1028093B0028091B0029091B1026E
:101050006091CC020E94BB029093B1028093B002D7
:1010600086E08093B2028DE392E80C942C0616C0C1
:101070006623A1F083B7817F633021F0623021F4D1
:101080009CE003C094E001C090E0892B83BF83B74C
:10109000816083BF889583B78E7F83BF8091B202C2
:1010A000843031F70895CF92EF920F931F93CF932F
:1010B000DF93EC01162FBA0120932D02EEE2F2E04D
:1010C000422F50E0CF010E9408102E2D402F612F9B
:1010D000CE010E9405086C2DCE01DF91CF911F91AA
:1010E0000F91EF90CF900C9437088F929F92AF9210
:1010F000BF92CF92EF920F93CF93DF9300D0CDB7F3
:10110000DEB74C015A0107C0C4012A8369830E94DB
:101110009B0769812A81C4012A8369830E94EE07A3
:101120002A816981882381F3CE2CE12CA501C40199
:101130000E9453080F900F90DF91CF910F91EF9085
:10114000CF90BF90AF909F908F900895AF92BF9235
:10115000CF92EF920F931F93CF93DF93EC015B013C
:10116000142FC22E03C0CE010E949B07CE010E9405
:10117000EE078823C1F360912C026F77EE24E3948D
:1011800000E0212FA501CE010E945308DF91CF91ED
:101190001F910F91EF90CF90BF90AF9008958091E5
:1011A0002C028F77089580912C0287FF07C08091D1
:1011B0002B028095881F8827881F089580E0089556
:1011C000CF93DF931F92CDB7DEB769830E949B0751
:1011D0006981882319F18091B0029091B102892B25
:1011E000E9F480912B028F779091CD02891316C07C
:1011F00020912C022F7730E0862F90E028173907B6
:1012000011F061110BC080912B0287FF07C0809104
:101210002C028095881F8827881F01C080E00F90CE
:10122000DF91CF9108956115710589F0DB0124EB01
:1012300032E0F90102C05D9151935E2F521B5417A9
:10124000D0F325ED32E0FC01318320830895FC01C9
:10125000118210820895CB010C941212CB01642FDD
:101260000C941A128230E8F4E82FF0E0EE0FFF1F22
:10127000E053FD4F71836083813041F080916900BC
:101280008C7F842B80936900E89A0895809169008F
:10129000440F551F440F551F837F842B8093690093
:1012A000E99A0895823068F4813011F0E89801C01D
:1012B000E998E82FF0E0EE0FFF1FE053FD4F118299
:1012C000108208951F920F920FB60F9211242F9340
:1012D0003F934F935F936F937F938F939F93AF93BE
:1012E000BF93EF93FF938091D0029091D102892B0D
:1012F00029F0E091D002F091D1020995FF91EF9190
:10130000BF91AF919F918F917F916F915F914F911D
:101310003F912F910F900FBE0F901F9018951F9225
:101320000F920FB60F9211242F933F934F935F9319
:101330006F937F938F939F93AF93BF93EF93FF939D
:101340008091D2029091D302892B29F0E091D202B0
:10135000F091D3020995FF91EF91BF91AF919F91C9
:101360008F917F916F915F914F913F912F910F904E
:101370000FBE0F901F901895833069F028F48130CC
:10138000A1F0823011F514C08630B1F08730C1F081
:101390008430D9F404C0809180008F7703C080919D
:1013A00080008F7D80938000089584B58F7702C080
:1013B00084B58F7D84BD08958091B0008F7703C080
:1013C0008091B0008F7D8093B0000895CF93DF931C
:1013D00090E0FC01E458FF4F4491FC01E057FF4FBF
:1013E0008491882341F190E0880F991FFC01E85413
:1013F000FF4F25913491D90182559F4FFC01859172
:101400009491C82FD92F9FB7F8948C91611106C081
:10141000409584238C938881842308C0623041F4F2
:10142000242F209582238C938881842B888302C06B
:10143000842B8C939FBFDF91CF9108950F931F93BF
:10144000CF93DF931F92CDB7DEB7282F30E0F9019D
:10145000E859FF4F8491F901E458FF4F1491F901C5
:10146000E057FF4F04910023D1F0882321F06983D6
:101470000E94BC096981E02FF0E0EE0FFF1FE255EA
:10148000FF4F85919491DC019FB7F8948C91611185
:1014900003C01095812301C0812B8C939FBF0F90B7
:1014A000DF91CF911F910F910895CF93DF93282F54
:1014B00030E0F901E859FF4F8491F901E458FF4FFA
:1014C000D491F901E057FF4FC491CC2389F08111E9
:1014D0000E94BC09EC2FF0E0EE0FFF1FEC55FF4F10
:1014E00085919491DC018C918D2321E030E011F401
:1014F00020E030E0C901DF91CF9108958093010190
:1015000008958E3008F08E5087702091010140E4DC
:10151000249F90011124822B80937C0080917A007B
:10152000806480937A0080917A0086FDFCCF2091C0
:10153000780030917900932F80E0AC01422B9A0122
:10154000C90108951F920F920FB60F9211242F9385
:101550003F938F939F93AF93BF938091D4029091C9
:10156000D502A091D602B091D7023091DC02232F90
:101570002D5F2D3720F40196A11DB11D05C0232F2D
:101580002A570296A11DB11D2093DC028093D4023C
:101590009093D502A093D602B093D7028091D8023F
:1015A0009091D902A091DA02B091DB020196A11DBF
:1015B000B11D8093D8029093D902A093DA02B09320
:1015C000DB02BF91AF919F918F913F912F910F902F
:1015D0000FBE0F901F9018950F931F938FB7F8941D
:1015E0000091D4021091D5022091D6023091D702F9
:1015F0008FBFB801C9011F910F9108950F931F93D9
:101600009FB7F8940091D8021091D9022091DA0284
:101610003091DB0286B5A89B06C08F3F21F00F5F9B
:101620001F4F2F4F3F4F9FBF322F212F102F0027CB
:10163000080F111D211D311D42E0000F111F221F37
:10164000331F4A95D1F7B801C9011F910F91089531
:10165000CF92DF92EF92FF92CF93DF936B017C01E9
:101660000E94FE0AEB010EC00E94FE0A6C1B7D0B5D
:10167000683E734038F081E0C81AD108E108F108EB
:10168000C851DC4FC114D104E104F10469F7DF91C2
:10169000CF91FF90EF90DF90CF900895789484B52C
:1016A000826084BD84B5816084BD85B5826085BD5E
:1016B00085B5816085BDEEE6F0E080818160808344
:1016C000E1E8F0E010828081826080838081816027
:1016D0008083E0E8F0E0808181608083E1EBF0E0EE
:1016E000808184608083E0EBF0E080818160808392
:1016F000EAE7F0E08081846080838081826080837B
:101700008081816080838081806880831092C100A5
:101710000895CF92DF92EF92FF920F931F93CF9392
:10172000DF936C01EB017A01E60EF71E00E010E09A
:101730000BC06991D601ED91FC910190F081E02DF3
:10174000C6010995080F191FCE15DF0591F7C801CD
:10175000DF91CF911F910F91FF90EF90DF90CF908D
:101760000895DB010D900020E9F7AD0141505109CA
:10177000461B570BDC01ED91FC910280F381E02DBB
:1017800009940C94B10BDC01ED91FC910190F08176
:10179000E02D09940F931F93CF93DF93EC016DE03D
:1017A0000E94C30B8C016AE0CE010E94C30B9C0116
:1017B000200F311FC901DF91CF911F910F91089523
:1017C0000F931F93CF93DF93EC010E94B10B8C0119
:1017D000CE010E94CA0B9801280F391FC901DF9161
:1017E000CF911F910F9108950F931F93CF93DF9384
:1017F000EC010E94C30B8C01CE010E94CA0B9C011C
:10180000200F311FC901DF91CF911F910F910895D2
:101810004F925F926F927F929F92AF92BF92CF92C0
:10182000DF92EF92FF920F931F93CF93DF93CDB789
:10183000DEB7A1970FB6F894DEBF0FBECDBF5C0137
:101840006A017B01922E19A281E0821710F08AE0D2
:10185000982E8E010F5D1F4F492C512C612C712C3D
:10186000C701B601A30192010E94E00F8C2D929E48
:1018700080191124015011098A3014F4805D01C0CF
:10188000895CF801808369017A01C114D104E10403
:10189000F10431F7B801C5010E94B10BA1960FB652
:1018A000F894DEBF0FBECDBFDF91CF911F910F9196
:1018B000FF90EF90DF90CF90BF90AF909F907F9080
:1018C0006F905F904F900895CF92DF92EF92FF92CA
:1018D0000F931F93CF93DF93EC016A017B012115D6
:1018E000310579F4E881F9810190F081E02D642FD0
:1018F000DF91CF911F910F91FF90EF90DF90CF90EC
:1019000009942A30310519F477FD0EC02AE0B70199
:10191000A601CE01DF91CF911F910F91FF90EF9023
:10192000DF90CF900C94080C6DE20E94C30B8C01E9
:1019300044275527BA014C195D096E097F092AE031
:10194000CE010E94080C080F191FC801DF91CF912A
:101950001F910F91FF90EF90DF90CF9008950F931C
:101960001F93CF93DF93EC019A01AB01662757FDDC
:101970006095762F0E94640C8C01CE010E94CA0BE8
:101980009801280F391FC901DF91CF911F910F9145
:1019900008950E944E0B0E949E02C5EADDE00E945F
:1019A00007022097E1F30E94A50DF9CFFC01848581
:1019B0009585FC01E05CFF4F20813181FC01EE5BED
:1019C000FF4F80819181281B390B2F733327C90169
:1019D0000895FC0184859585FC01E05CFF4F408102
:1019E0005181FC01EE5BFF4F20813181421753078B
:1019F00041F00190F081E02DE80FF91F208130E0E7
:101A000002C02FEF3FEFC9010895FC018485958541
:101A1000FC01E05CFF4F40815181FC01EE5BFF4F18
:101A2000208131814217530781F0A081B181A80F35
:101A3000B91F8C91208131812F5F3F4F2F73332746
:101A400031832083282F30E002C02FEF3FEFC90100
:101A50000895FC0186859785FC01E05CFF4FDC0161
:101A6000AE5BBF4F408151812D913C911197421740
:101A70005307C1F70895CF93DF93FC0186859785BF
:101A8000DC01A05CBF4F2D913C9111972F5F3F4F20
:101A90002F733327EC01CE5BDF4F48815981241728
:101AA0003507D9F30D90BC91A02DA80FB91F6C93E9
:101AB000A685B785A05CBF4F11963C932E93A6894F
:101AC000B7892C9181E090E0058C02C0880F991FA6
:101AD0000A94E2F7282B2C9381E090E0DF91CF91DC
:101AE000089508951F920F920FB60F9211242F930D
:101AF0003F934F938F939F93EF93FF934091C60033
:101B0000809180039091810301968F739927209192
:101B10008203309183038217930759F0E091800389
:101B2000F0918103E05CFC4F4083909381038093AC
:101B30008003FF91EF919F918F914F913F912F9152
:101B40000F900FBE0F901F9018958DED92E00E94A0
:101B5000D60C892B11F00C94710D08951F920F92E1
:101B60000FB60F9211242F933F938F939F93EF9370
:101B7000FF9320913C0330913D0380913E0390916F
:101B80003F032817390731F48091C1008F7D80937E
:101B9000C10014C0E0913E03F0913F03E450FD4FBB
:101BA000208180913E0390913F0301968F73992786
:101BB00090933F0380933E032093C600FF91EF91E3
:101BC0009F918F913F912F910F900FBE0F901F907B
:101BD0001895CF92DF92EF92FF92CF93DF93EC01B3
:101BE0006A017B01411581EE580761057105F9F025
:101BF000EC89FD8981E090E00E8C02C0880F991F6E
:101C00000A94E2F7808360E079E08DE390E0A70139
:101C100096010E94E00F2150310941095109569562
:101C2000479537952795211580E1380798F0EC897D
:101C3000FD89108260E874E88EE190E0A7019601CA
:101C40000E94E00F215031094109510956954795ED
:101C500037952795E889F9893083EA89FB892083BC
:101C6000EE89FF89408181E090E09C010A8C02C0EE
:101C7000220F331F0A94E2F7422B4083EE89FF893B
:101C800040819C010B8C02C0220F331F0A94E2F7A3
:101C9000422B4083EE89FF8940819C010C8C02C05D
:101CA000220F331F0A94E2F7422B4083EE89FF890B
:101CB00020810D8C02C0880F991F0A94E2F780954D
:101CC00082238083DF91CF91FF90EF90DF90CF90C0
:101CD00008951092E0021092DF0288EE93E0A0E0F7
:101CE000B0E08093E1029093E202A093E302B0930C
:101CF000E40285E092E09093DE028093DD0280E4CE
:101D000093E09093EA028093E9028CEF92E0909343
:101D1000EC028093EB0285EC90E09093EE028093CE
:101D2000ED0284EC90E09093F0028093EF0280EC5F
:101D300090E09093F2028093F10281EC90E0909316
:101D4000F4028093F30286EC90E09093F602809385
:101D5000F50284E08093F70283E08093F80287E045
:101D60008093F90285E08093FA0281E08093FB0280
:101D700008950CD0EBC0E3D040F0DAD030F021F47D
:101D80005F3F19F0CCC0511115C1CFC0F0D098F30E
:101D90009923C9F35523B1F3951B550BBB27AA27EC
:101DA00062177307840738F09F5F5F4F220F331F5E
:101DB000441FAA1FA9F333D00E2E3AF0E0E830D02A
:101DC00091505040E695001CCAF729D0FE2F27D02D
:101DD000660F771F881FBB1F261737074807AB07FB
:101DE000B0E809F0BB0B802DBF01FF2793585F4F70
:101DF0002AF09E3F510568F092C0DCC05F3FECF3D3
:101E0000983EDCF3869577956795B795F7959F5F34
:101E1000C9F7880F911D9695879597F90895E1E088
:101E2000660F771F881FBB1F621773078407BA07E7
:101E300020F0621B730B840BBA0BEE1F88F7E09542
:101E4000089504D06894B111B5C0089598D088F071
:101E50009F5790F0B92F9927B751A0F0D1F0660F96
:101E6000771F881F991F1AF0BA95C9F712C0B130B1
:101E700081F09FD0B1E008959CC0672F782F88270C
:101E8000B85F39F0B93FCCF3869577956795B395F0
:101E9000D9F73EF490958095709561957F4F8F4F5F
:101EA0009F4F0895E89409C097FB3EF49095809564
:101EB000709561957F4F8F4F9F4F9923A9F0F92F10
:101EC00096E9BB279395F695879577956795B7958E
:101ED000F111F8CFFAF4BB0F11F460FF1BC06F5F74
:101EE0007F4F8F4F9F4F16C0882311F096E911C086
:101EF000772321F09EE8872F762F05C0662371F0A7
:101F000096E8862F70E060E02AF09A95660F771FBA
:101F1000881FDAF7880F9695879597F9089597F9AE
:101F20009F6780E870E060E008959FEF80EC08957F
:101F300000240A94161617061806090608950024A8
:101F40000A9412161306140605060895092E039422
:101F5000000C11F4882352F0BB0F40F4BF2B11F496
:101F600060FF04C06F5F7F4F8F4F9F4F089557FDF5
:101F70009058440F551F59F05F3F71F04795880FF7
:101F800097FB991F61F09F3F79F08795089512168E
:101F900013061406551FF2CF4695F1DF08C016163A
:101FA00017061806991FF1CF8695710561050894EB
:101FB0000895E894BB2766277727CB0197F9089502
:101FC000A1E21A2EAA1BBB1BFD010DC0AA1FBB1F3D
:101FD000EE1FFF1FA217B307E407F50720F0A21BAF
:101FE000B30BE40BF50B661F771F881F991F1A941C
:101FF00069F760957095809590959B01AC01BD0146
:10200000CF010895EE0FFF1F0590F491E02D099484
:10201000FB01DC0102C001900D9241505040D8F705
:102020000895A0E1B0E0E7E1F0E10C94D6120F8949
:10203000188D86E08C831A8309838FEF9FE79E8338
:102040008D83AE01455E5F4F588B4F87698D7A8DCA
:10205000CE0101960E943510EF81F885E00FF11F47
:1020600010826096E4E00C94F212ACE0B0E0EBE396
:10207000F0E10C94C8127C016B018A01FC0117820B
:102080001682838181FFC7C188248394912C8C0E92
:102090009D1EF7019381F60193FD859193FF819138
:1020A0006F01882309F4B3C1853239F493FD85911A
:1020B00093FF81916F01853229F4B70190E00E946E
:1020C0003E12E7CF712C312C20E02032A8F48B3265
:1020D00061F028F4803251F0833271F40BC08D32FC
:1020E00039F0803349F4216028C02260246025C083
:1020F000286023C0206121C027FD27C0382F30531E
:102100003A3078F426FF06C0FAE07F9E300D1124A5
:10211000732E13C08AE0389E300D1124332E2062B6
:102120000CC08E3221F426FD72C1206406C08C36AC
:1021300011F4206802C0883641F4F60193FD8591C0
:1021400093FF81916F018111C0CF982F95549330E7
:1021500018F09052933028F40C5F1F4FFFE3F9837F
:102160000DC0833631F0833771F0833509F05EC0DE
:1021700023C0F801808189830E5F1F4F662463941A
:10218000712C540115C02801F2E04F0E511CF801CA
:10219000A080B18026FF03C0672D70E002C06FEF02
:1021A0007FEFC5012C870E9433123C0182012C85F0
:1021B0006FE7262E222218C02801F2E04F0E511C94
:1021C000F801A080B18026FF03C0672D70E002C037
:1021D0006FEF7FEFC5012C870E9428123C012C85F0
:1021E00050E8252E222A820123FC1CC006C0B7011C
:1021F00080E290E00E943E123A94832D90E06816AF
:102200007906A8F30FC0F50127FC859127FE81917F
:102210005F01B70190E00E943E1231103A94F1E064
:102220006F1A71086114710471F7EEC0843611F0F1
:10223000893641F5F80127FF07C0608171818281ED
:1022400093810C5F1F4F08C060817181882777FDE3
:102250008095982F0E5F1F4F4FE6642E622297FFE6
:1022600009C090958095709561957F4F8F4F9F4FD6
:10227000F0E86F2A2AE030E0A4010E946A12A82E3A
:10228000A81844C0853731F43FEEB32EB2222AE0BD
:1022900030E024C099EFB92EB2228F36B9F020F485
:1022A000883509F0B4C00DC0803721F0883709F0B7
:1022B000AEC002C020E1B22AB4FE0BC084E0B82A4E
:1022C00008C024FF09C0E6E0BE2A06C028E030E0CE
:1022D00005C020E130E002C020E132E0F801B7FEA5
:1022E00007C060817181828193810C5F1F4F06C09E
:1022F0006081718180E090E00E5F1F4FA4010E9419
:102300006A12A82EA8188FE7682E6B2066FE0BC0F5
:10231000362D3E7FA71450F464FE0AC062FC08C04C
:10232000362D3E7E05C0BA2C362D03C0BA2C01C016
:10233000B72C34FF0DC0FE01EA0DF11D8081803302
:1023400011F4397E09C032FF06C0B394B39404C0BF
:10235000832F867809F0B39433FD14C030FF0FC08B
:102360007A2CB31460F4730C7B18B32C08C0B7013B
:1023700080E290E03C870E943E12B3943C85B31407
:10238000B0F304C0B31410F43B1801C0312C34FF77
:1023900012C0B70180E390E03C870E943E123C856A
:1023A00032FF1EC031FF03C088E590E002C088E71D
:1023B00090E0B7010CC0832F867891F031FD02C008
:1023C00080E201C08BE237FD8DE2B70190E00E9410
:1023D0003E1206C0B70180E390E00E943E127A945C
:1023E000A714C0F3AA94F401EA0DF11DB70180818E
:1023F00090E00E943E12A110F5CF06C0B70180E226
:1024000090E00E943E123A943110F8CF42CEF7018C
:102410002681378102C02FEF3FEFC9012C96E2E100
:102420000C94E412F999FECF92BD81BDF89A9927D8
:1024300080B50895262FF999FECF1FBA92BD81BDB0
:1024400020BD0FB6F894FA9AF99A0FBE0196089536
:10245000FC010590615070400110D8F7809590956F
:102460008E0F9F1F0895FC01615070400190011074
:10247000D8F7809590958E0F9F1F08950F931F9307
:10248000CF93DF938C01EB018B8181FD03C00FEFB4
:102490001FEF1AC082FF0DC02E813F818C819D816C
:1024A0002817390764F4E881F9810193F983E883F7
:1024B00006C0E885F985802F0995892B41F78E8123
:1024C0009F8101969F838E83C801DF91CF911F91D9
:1024D0000F910895FA01AA27283051F1203181F196
:1024E000E8946F936E7F6E5F7F4F8F4F9F4FAF4F1C
:1024F000B1E03ED0B4E03CD0670F781F891F9A1F2F
:10250000A11D680F791F8A1F911DA11D6A0F711DE2
:10251000811D911DA11D20D009F468943F912AE0EE
:10252000269F11243019305D3193DEF6CF010895D6
:10253000462F4770405D4193B3E00FD0C9F7F6CF07
:10254000462F4F70405D4A3318F0495D31FD4052CF
:10255000419302D0A9F7EACFB4E0A6959795879565
:1025600077956795BA95C9F7009761057105089544
:102570009B01AC010A2E06945795479537952795F0
:10258000BA95C9F7620F731F841F951FA01D089588
:102590002F923F924F925F926F927F928F929F9273
:1025A000AF92BF92CF92DF92EF92FF920F931F9361
:1025B000CF93DF93CDB7DEB7CA1BDB0B0FB6F89412
:1025C000DEBF0FBECDBF09942A88398848885F8452
:1025D0006E847D848C849B84AA84B984C884DF80C3
:1025E000EE80FD800C811B81AA81B981CE0FD11DA7
:1025F0000FB6F894DEBF0FBECDBFED010895F8947D
:02260000FFCF0A
:102602003001496E697469616C697A696E6720523A
:102612006164696F2E2E004142434441424344416A
:1026220042434441424344004C697374656E696E8F
:102632006720666F722072657175657374732E2ED2
:102642002E0A002563256425630052657175657342
:10265200742073656E7420746F206E6F6465203A07
:10266200200041434B206F6B004E4F2041436B20B3
:102672007265706C79005D200052656369657665EC
:10268200643A2000202D2041434B2073656E740074
:102692004241442D43524300546865206465766983
:1026A200636520697320616C72656164792072656B
:1026B2006769737465726564005468652064657641
:1026C20069636520697320726567697374657265F1
:1026D20064206E6F77004E6F742072656769737441
:1026E2006572656400507265762070696E2073743D
:1026F200617465203A20005B537563636573735D93
:1027020000000000003B0D890BD60C050DE90C29D9
:022712000D00B8
:00000001FF
